{
  "_format": "hh-sol-artifact-1",
  "contractName": "CryptoBlessing",
  "sourceName": "contracts/CryptoBlessing.sol",
  "abi": [
    {
      "inputs": [
        {
          "internalType": "address",
          "name": "_sendTokenAddress",
          "type": "address"
        },
        {
          "internalType": "address",
          "name": "_cryptoBlessingTokenAddress",
          "type": "address"
        },
        {
          "internalType": "address",
          "name": "_cryptoBlessingNFTAddress",
          "type": "address"
        }
      ],
      "stateMutability": "payable",
      "type": "constructor"
    },
    {
      "anonymous": false,
      "inputs": [
        {
          "indexed": true,
          "internalType": "address",
          "name": "previousOwner",
          "type": "address"
        },
        {
          "indexed": true,
          "internalType": "address",
          "name": "newOwner",
          "type": "address"
        }
      ],
      "name": "OwnershipTransferred",
      "type": "event"
    },
    {
      "anonymous": false,
      "inputs": [
        {
          "indexed": false,
          "internalType": "address",
          "name": "account",
          "type": "address"
        }
      ],
      "name": "Paused",
      "type": "event"
    },
    {
      "anonymous": false,
      "inputs": [
        {
          "indexed": false,
          "internalType": "address",
          "name": "account",
          "type": "address"
        }
      ],
      "name": "Unpaused",
      "type": "event"
    },
    {
      "anonymous": false,
      "inputs": [
        {
          "indexed": false,
          "internalType": "address",
          "name": "sender",
          "type": "address"
        },
        {
          "indexed": false,
          "internalType": "address",
          "name": "blessingID",
          "type": "address"
        }
      ],
      "name": "claimerClaimComplete",
      "type": "event"
    },
    {
      "anonymous": false,
      "inputs": [
        {
          "indexed": false,
          "internalType": "address",
          "name": "sender",
          "type": "address"
        },
        {
          "indexed": false,
          "internalType": "address",
          "name": "blessingID",
          "type": "address"
        }
      ],
      "name": "senderRevokeComplete",
      "type": "event"
    },
    {
      "anonymous": false,
      "inputs": [
        {
          "indexed": false,
          "internalType": "address",
          "name": "sender",
          "type": "address"
        },
        {
          "indexed": false,
          "internalType": "address",
          "name": "blessingID",
          "type": "address"
        }
      ],
      "name": "senderSendCompleted",
      "type": "event"
    },
    {
      "inputs": [
        {
          "internalType": "string[]",
          "name": "images",
          "type": "string[]"
        },
        {
          "components": [
            {
              "internalType": "uint256",
              "name": "price",
              "type": "uint256"
            },
            {
              "internalType": "address",
              "name": "owner",
              "type": "address"
            },
            {
              "internalType": "uint8",
              "name": "deleted",
              "type": "uint8"
            },
            {
              "internalType": "uint256",
              "name": "taxRate",
              "type": "uint256"
            },
            {
              "internalType": "string",
              "name": "ipfs",
              "type": "string"
            }
          ],
          "internalType": "struct CryptoBlessing.Blessing[]",
          "name": "blessings",
          "type": "tuple[]"
        }
      ],
      "name": "batchUpdateBlessing",
      "outputs": [],
      "stateMutability": "nonpayable",
      "type": "function"
    },
    {
      "inputs": [
        {
          "internalType": "address",
          "name": "sender",
          "type": "address"
        },
        {
          "internalType": "address",
          "name": "blessingID",
          "type": "address"
        },
        {
          "internalType": "bytes32",
          "name": "hash",
          "type": "bytes32"
        },
        {
          "internalType": "bytes",
          "name": "signature",
          "type": "bytes"
        }
      ],
      "name": "claimBlessing",
      "outputs": [
        {
          "components": [
            {
              "internalType": "address",
              "name": "sender",
              "type": "address"
            },
            {
              "internalType": "address",
              "name": "blessingID",
              "type": "address"
            },
            {
              "internalType": "string",
              "name": "blessingImage",
              "type": "string"
            },
            {
              "internalType": "uint256",
              "name": "claimTimestamp",
              "type": "uint256"
            },
            {
              "internalType": "uint256",
              "name": "claimAmount",
              "type": "uint256"
            },
            {
              "internalType": "uint256",
              "name": "taxAmount",
              "type": "uint256"
            }
          ],
          "internalType": "struct CryptoBlessing.ClaimerBlessing",
          "name": "",
          "type": "tuple"
        }
      ],
      "stateMutability": "payable",
      "type": "function"
    },
    {
      "inputs": [
        {
          "internalType": "address",
          "name": "sender",
          "type": "address"
        },
        {
          "internalType": "address",
          "name": "blessingID",
          "type": "address"
        }
      ],
      "name": "getAllInfoOfBlessing",
      "outputs": [
        {
          "components": [
            {
              "internalType": "uint256",
              "name": "price",
              "type": "uint256"
            },
            {
              "internalType": "address",
              "name": "owner",
              "type": "address"
            },
            {
              "internalType": "uint8",
              "name": "deleted",
              "type": "uint8"
            },
            {
              "internalType": "uint256",
              "name": "taxRate",
              "type": "uint256"
            },
            {
              "internalType": "string",
              "name": "ipfs",
              "type": "string"
            }
          ],
          "internalType": "struct CryptoBlessing.Blessing",
          "name": "",
          "type": "tuple"
        },
        {
          "components": [
            {
              "internalType": "address",
              "name": "blessingID",
              "type": "address"
            },
            {
              "internalType": "string",
              "name": "blessingImage",
              "type": "string"
            },
            {
              "internalType": "uint256",
              "name": "sendTimestamp",
              "type": "uint256"
            },
            {
              "internalType": "uint256",
              "name": "tokenAmount",
              "type": "uint256"
            },
            {
              "internalType": "uint256",
              "name": "claimQuantity",
              "type": "uint256"
            },
            {
              "internalType": "enum CryptoBlessing.ClaimType",
              "name": "claimType",
              "type": "uint8"
            },
            {
              "internalType": "bool",
              "name": "revoked",
              "type": "bool"
            }
          ],
          "internalType": "struct CryptoBlessing.SenderBlessing",
          "name": "",
          "type": "tuple"
        },
        {
          "components": [
            {
              "internalType": "address",
              "name": "claimer",
              "type": "address"
            },
            {
              "internalType": "uint256",
              "name": "claimTimestamp",
              "type": "uint256"
            },
            {
              "internalType": "uint256",
              "name": "distributedAmount",
              "type": "uint256"
            },
            {
              "internalType": "uint256",
              "name": "claimAmount",
              "type": "uint256"
            },
            {
              "internalType": "uint256",
              "name": "taxAmount",
              "type": "uint256"
            },
            {
              "internalType": "uint256",
              "name": "CBTokenAwardToSenderAmount",
              "type": "uint256"
            }
          ],
          "internalType": "struct CryptoBlessing.BlessingClaimStatus[]",
          "name": "",
          "type": "tuple[]"
        }
      ],
      "stateMutability": "view",
      "type": "function"
    },
    {
      "inputs": [
        {
          "internalType": "string",
          "name": "image",
          "type": "string"
        }
      ],
      "name": "getBlessing",
      "outputs": [
        {
          "components": [
            {
              "internalType": "uint256",
              "name": "price",
              "type": "uint256"
            },
            {
              "internalType": "address",
              "name": "owner",
              "type": "address"
            },
            {
              "internalType": "uint8",
              "name": "deleted",
              "type": "uint8"
            },
            {
              "internalType": "uint256",
              "name": "taxRate",
              "type": "uint256"
            },
            {
              "internalType": "string",
              "name": "ipfs",
              "type": "string"
            }
          ],
          "internalType": "struct CryptoBlessing.Blessing",
          "name": "",
          "type": "tuple"
        }
      ],
      "stateMutability": "view",
      "type": "function"
    },
    {
      "inputs": [
        {
          "internalType": "address",
          "name": "_blessingID",
          "type": "address"
        }
      ],
      "name": "getBlessingClaimingStatus",
      "outputs": [
        {
          "components": [
            {
              "internalType": "address",
              "name": "claimer",
              "type": "address"
            },
            {
              "internalType": "uint256",
              "name": "claimTimestamp",
              "type": "uint256"
            },
            {
              "internalType": "uint256",
              "name": "distributedAmount",
              "type": "uint256"
            },
            {
              "internalType": "uint256",
              "name": "claimAmount",
              "type": "uint256"
            },
            {
              "internalType": "uint256",
              "name": "taxAmount",
              "type": "uint256"
            },
            {
              "internalType": "uint256",
              "name": "CBTokenAwardToSenderAmount",
              "type": "uint256"
            }
          ],
          "internalType": "struct CryptoBlessing.BlessingClaimStatus[]",
          "name": "",
          "type": "tuple[]"
        }
      ],
      "stateMutability": "view",
      "type": "function"
    },
    {
      "inputs": [
        {
          "internalType": "address",
          "name": "_blessingID",
          "type": "address"
        }
      ],
      "name": "getBlessingPubkeyStatus",
      "outputs": [
        {
          "components": [
            {
              "internalType": "address",
              "name": "pubkey",
              "type": "address"
            },
            {
              "internalType": "bool",
              "name": "used",
              "type": "bool"
            }
          ],
          "internalType": "struct CryptoBlessing.ClaimPubkeyStatus[]",
          "name": "",
          "type": "tuple[]"
        }
      ],
      "stateMutability": "view",
      "type": "function"
    },
    {
      "inputs": [],
      "name": "getMyClaimedBlessings",
      "outputs": [
        {
          "components": [
            {
              "internalType": "address",
              "name": "sender",
              "type": "address"
            },
            {
              "internalType": "address",
              "name": "blessingID",
              "type": "address"
            },
            {
              "internalType": "string",
              "name": "blessingImage",
              "type": "string"
            },
            {
              "internalType": "uint256",
              "name": "claimTimestamp",
              "type": "uint256"
            },
            {
              "internalType": "uint256",
              "name": "claimAmount",
              "type": "uint256"
            },
            {
              "internalType": "uint256",
              "name": "taxAmount",
              "type": "uint256"
            }
          ],
          "internalType": "struct CryptoBlessing.ClaimerBlessing[]",
          "name": "",
          "type": "tuple[]"
        }
      ],
      "stateMutability": "view",
      "type": "function"
    },
    {
      "inputs": [],
      "name": "getMySendedBlessings",
      "outputs": [
        {
          "components": [
            {
              "internalType": "address",
              "name": "blessingID",
              "type": "address"
            },
            {
              "internalType": "string",
              "name": "blessingImage",
              "type": "string"
            },
            {
              "internalType": "uint256",
              "name": "sendTimestamp",
              "type": "uint256"
            },
            {
              "internalType": "uint256",
              "name": "tokenAmount",
              "type": "uint256"
            },
            {
              "internalType": "uint256",
              "name": "claimQuantity",
              "type": "uint256"
            },
            {
              "internalType": "enum CryptoBlessing.ClaimType",
              "name": "claimType",
              "type": "uint8"
            },
            {
              "internalType": "bool",
              "name": "revoked",
              "type": "bool"
            }
          ],
          "internalType": "struct CryptoBlessing.SenderBlessing[]",
          "name": "",
          "type": "tuple[]"
        }
      ],
      "stateMutability": "view",
      "type": "function"
    },
    {
      "inputs": [],
      "name": "owner",
      "outputs": [
        {
          "internalType": "address",
          "name": "",
          "type": "address"
        }
      ],
      "stateMutability": "view",
      "type": "function"
    },
    {
      "inputs": [],
      "name": "pause",
      "outputs": [],
      "stateMutability": "nonpayable",
      "type": "function"
    },
    {
      "inputs": [],
      "name": "paused",
      "outputs": [
        {
          "internalType": "bool",
          "name": "",
          "type": "bool"
        }
      ],
      "stateMutability": "view",
      "type": "function"
    },
    {
      "inputs": [],
      "name": "renounceOwnership",
      "outputs": [],
      "stateMutability": "nonpayable",
      "type": "function"
    },
    {
      "inputs": [
        {
          "internalType": "address",
          "name": "blessingID",
          "type": "address"
        }
      ],
      "name": "revokeBlessing",
      "outputs": [],
      "stateMutability": "nonpayable",
      "type": "function"
    },
    {
      "inputs": [
        {
          "internalType": "string",
          "name": "image",
          "type": "string"
        },
        {
          "internalType": "address",
          "name": "blessingID",
          "type": "address"
        },
        {
          "internalType": "uint256",
          "name": "tokenAmount",
          "type": "uint256"
        },
        {
          "internalType": "uint256",
          "name": "claimQuantity",
          "type": "uint256"
        },
        {
          "internalType": "enum CryptoBlessing.ClaimType",
          "name": "claimType",
          "type": "uint8"
        },
        {
          "internalType": "address[]",
          "name": "pubkeys",
          "type": "address[]"
        }
      ],
      "name": "sendBlessing",
      "outputs": [],
      "stateMutability": "nonpayable",
      "type": "function"
    },
    {
      "inputs": [
        {
          "internalType": "uint256",
          "name": "_CBTOKENAWARDRATIO",
          "type": "uint256"
        },
        {
          "internalType": "uint256",
          "name": "_CBTOKENAWARDMAX",
          "type": "uint256"
        }
      ],
      "name": "setCBTOKENAWARDRATIO",
      "outputs": [],
      "stateMutability": "nonpayable",
      "type": "function"
    },
    {
      "inputs": [
        {
          "internalType": "uint256",
          "name": "_CLAIM_TAX_RATE",
          "type": "uint256"
        }
      ],
      "name": "setCLAIM_TAX_RATE",
      "outputs": [],
      "stateMutability": "nonpayable",
      "type": "function"
    },
    {
      "inputs": [
        {
          "internalType": "address",
          "name": "newOwner",
          "type": "address"
        }
      ],
      "name": "transferOwnership",
      "outputs": [],
      "stateMutability": "nonpayable",
      "type": "function"
    },
    {
      "inputs": [],
      "name": "unpause",
      "outputs": [],
      "stateMutability": "nonpayable",
      "type": "function"
    },
    {
      "inputs": [
        {
          "internalType": "address",
          "name": "nextVersionContractAddress",
          "type": "address"
        }
      ],
      "name": "upgradeToNextVersion",
      "outputs": [],
      "stateMutability": "nonpayable",
      "type": "function"
    }
  ],
  "bytecode": "0x6080604052600580556064600655600a6007556040516200445438038062004454833981016040819052620000349162000100565b6200003f3362000093565b6000805460ff60a01b1916905560018055600280546001600160a01b039485166001600160a01b03199182161790915560038054938516938216939093179092556004805491909316911617905562000149565b600080546001600160a01b038381166001600160a01b0319831681178455604051919092169283917f8be0079c531659141344cd1fd0a4f28419497f9722a3daafe3b4186f6b6457e09190a35050565b80516001600160a01b0381168114620000fb57600080fd5b919050565b60008060006060848603121562000115578283fd5b6200012084620000e3565b92506200013060208501620000e3565b91506200014060408501620000e3565b90509250925092565b6142fb80620001596000396000f3fe6080604052600436106101135760003560e01c806373fcd996116100a0578063dbf3fb9e11610064578063dbf3fb9e146102f2578063dd03ff8f1461031f578063e64872181461034c578063e911b6821461036e578063f2fde38b1461038e57600080fd5b806373fcd996146102445780638456cb59146102665780638da5cb5b1461027b578063c4cf21e8146102a3578063d9c3e243146102d257600080fd5b80635c975abb116100e75780635c975abb146101a557806360bc7ef5146101cf5780637054a2df146101ef578063715018a61461020f57806372a7c1af1461022457600080fd5b80627384741461011857806323c563291461013a5780632f6f24c71461015a5780633f4ba83a14610190575b600080fd5b34801561012457600080fd5b50610138610133366004613bdc565b6103ae565b005b34801561014657600080fd5b50610138610155366004613cd7565b610ce8565b34801561016657600080fd5b5061017a6101753660046139e9565b610cf5565b6040516101879190613f47565b60405180910390f35b34801561019c57600080fd5b50610138610d83565b3480156101b157600080fd5b50600054600160a01b900460ff166040519015158152602001610187565b3480156101db57600080fd5b506101386101ea366004613aae565b610d95565b6102026101fd366004613a35565b610f7b565b60405161018791906140f6565b34801561021b57600080fd5b50610138611dfe565b34801561023057600080fd5b5061013861023f366004613d07565b611e10565b34801561025057600080fd5b50610259611e23565b6040516101879190614002565b34801561027257600080fd5b50610138611fb8565b34801561028757600080fd5b506000546040516001600160a01b039091168152602001610187565b3480156102af57600080fd5b506102c36102be366004613a03565b611fc8565b604051610187939291906140b3565b3480156102de57600080fd5b506101386102ed3660046139e9565b6123e9565b3480156102fe57600080fd5b5061031261030d366004613ba1565b612903565b60405161018791906140a0565b34801561032b57600080fd5b5061033f61033a3660046139e9565b612a09565b6040516101879190613f34565b34801561035857600080fd5b50610361612ab2565b6040516101879190613fa1565b34801561037a57600080fd5b506101386103893660046139e9565b612be6565b34801561039a57600080fd5b506101386103a93660046139e9565b612f26565b6103b6612f9f565b836000106104165760405162461bcd60e51b815260206004820152602260248201527f746f6b656e416d6f756e74206d7573742062652067726561746572207468616e604482015261020360f41b60648201526084015b60405180910390fd5b8260001080156104275750600d8311155b6104995760405162461bcd60e51b815260206004820152603e60248201527f636c61696d5175616e74697479206d757374206265206772656174657220746860448201527f616e203020616e64206c657373206f7220657175616c207468616e2031330000606482015260840161040d565b805183146104ff5760405162461bcd60e51b815260206004820152602d60248201527f636c61696d5175616e74697479206d75737420626520657175616c20746f207060448201526c0eac4d6caf2e65cd8cadccee8d609b1b606482015260840161040d565b60006008876040516105119190613ef4565b908152604080516020928190038301812060a0820183528054825260018101546001600160a01b03811694830194909452600160a01b90930460ff16918101919091526002820154606082015260038201805491929160808401919061057690614219565b80601f01602080910402602001604051908101604052809291908181526020018280546105a290614219565b80156105ef5780601f106105c4576101008083540402835291602001916105ef565b820191906000526020600020905b8154815290600101906020018083116105d257829003601f168201915b5050505050815250509050600081600001511180156106135750604081015160ff16155b61065f5760405162461bcd60e51b815260206004820152601860248201527f496e76616c696420626c657373696e6720737461747573210000000000000000604482015260640161040d565b805161067790610670908690612fec565b8690612fff565b6002546040516370a0823160e01b81523360048201526001600160a01b03909116906370a082319060240160206040518083038186803b1580156106ba57600080fd5b505afa1580156106ce573d6000803e3d6000fd5b505050506040513d601f19601f820116820180604052508101906106f29190613cef565b10156107665760405162461bcd60e51b815260206004820152603e60248201527f596f757220746f6b656e20616d6f756e74206d7573742062652067726561746560448201527f72207468616e20796f752061726520747279696e6720746f2073656e64210000606482015260840161040d565b6002546040516323b872dd60e01b8152336004820152306024820152604481018790526001600160a01b03909116906323b872dd90606401602060405180830381600087803b1580156107b857600080fd5b505af11580156107cc573d6000803e3d6000fd5b505050506040513d601f19601f820116820180604052508101906107f09190613b81565b61083c5760405162461bcd60e51b815260206004820152601c60248201527f5472616e7366657220746f20636f6e7472616374206661696c65642100000000604482015260640161040d565b600254602082015160608301516001600160a01b03909216916323b872dd91339161088b906064906108859061087290836141d2565b885161087f908d90612fec565b90612fec565b9061300b565b6040516001600160e01b031960e086901b1681526001600160a01b0393841660048201529290911660248301526044820152606401602060405180830381600087803b1580156108da57600080fd5b505af11580156108ee573d6000803e3d6000fd5b505050506040513d601f19601f820116820180604052508101906109129190613b81565b6109705760405162461bcd60e51b815260206004820152602960248201527f5472616e7366657220746f20746865206f776e6572206f6620626c657373696e60448201526867206661696c65642160b81b606482015260840161040d565b6002546001600160a01b03166323b872dd336109946000546001600160a01b031690565b6109b86064610885876060015161087f89600001518d612fec90919063ffffffff16565b6040516001600160e01b031960e086901b1681526001600160a01b0393841660048201529290911660248301526044820152606401602060405180830381600087803b158015610a0757600080fd5b505af1158015610a1b573d6000803e3d6000fd5b505050506040513d601f19601f82011682018060405250810190610a3f9190613b81565b610a8b5760405162461bcd60e51b815260206004820181905260248201527f5472616e7366657220746f2074686520636f6e7472616374206661696c656421604482015260640161040d565b60096000336001600160a01b03166001600160a01b031681526020019081526020016000206040518060e00160405280886001600160a01b03168152602001898152602001428152602001878152602001868152602001856001811115610b0257634e487b7160e01b600052602160045260246000fd5b81526000602091820181905283546001808201865594825290829020835160069092020180546001600160a01b0319166001600160a01b0390921691909117815582820151805193949193610b5f93928501929190910190613714565b5060408201516002820155606082015160038201556080820151600482015560a082015160058201805460ff191660018381811115610bae57634e487b7160e01b600052602160045260246000fd5b021790555060c09190910151600590910180549115156101000261ff001990921691909117905560005b8251811015610c9d57600c6000886001600160a01b03166001600160a01b031681526020019081526020016000206040518060400160405280858481518110610c3157634e487b7160e01b600052603260045260246000fd5b6020908102919091018101516001600160a01b039081168352600092820183905284546001810186559483529181902083519401805493909101511515600160a01b026001600160a81b0319909316939091169290921717905580610c9581614254565b915050610bd8565b50604080513381526001600160a01b03881660208201527f9028f7dd664be64a65e420291fdb6b56dec3b01e5433aa9675727b383cf1e5bc910160405180910390a150505050505050565b610cf0613017565b600755565b6001600160a01b0381166000908152600c60209081526040808320805482518185028101850190935280835260609492939192909184015b82821015610d7857600084815260209081902060408051808201909152908401546001600160a01b0381168252600160a01b900460ff16151581830152825260019092019101610d2d565b505050509050919050565b610d8b613017565b610d93613071565b565b610d9d613017565b60005b8151811015610f76576040518060a00160405280838381518110610dd457634e487b7160e01b600052603260045260246000fd5b6020026020010151600001518152602001838381518110610e0557634e487b7160e01b600052603260045260246000fd5b6020026020010151602001516001600160a01b03168152602001838381518110610e3f57634e487b7160e01b600052603260045260246000fd5b60200260200101516040015160ff168152602001838381518110610e7357634e487b7160e01b600052603260045260246000fd5b6020026020010151606001518152602001838381518110610ea457634e487b7160e01b600052603260045260246000fd5b6020026020010151608001518152506008848381518110610ed557634e487b7160e01b600052603260045260246000fd5b6020026020010151604051610eea9190613ef4565b9081526040805191829003602090810190922083518155838301516001820180549386015160ff16600160a01b026001600160a81b03199094166001600160a01b03909216919091179290921790915560608301516002820155608083015180519192610f5f92600385019290910190613714565b509050508080610f6e90614254565b915050610da0565b505050565b610fc66040518060c0016040528060006001600160a01b0316815260200160006001600160a01b03168152602001606081526020016000815260200160008152602001600081525090565b610fce612f9f565b600260015414156110215760405162461bcd60e51b815260206004820152601f60248201527f5265656e7472616e637947756172643a207265656e7472616e742063616c6c00604482015260640161040d565b60026001556110318383866130c6565b6110725760405162461bcd60e51b8152602060048201526012602482015271496e76616c6964207369676e69747572652160701b604482015260640161040d565b333b156110d35760405162461bcd60e51b815260206004820152602960248201527f596f752063616e206e6f7420636c61696d20626c657373696e672066726f6d20604482015268636f6e74726163742160b81b606482015260840161040d565b6001600160a01b038516600090815260096020908152604080832080548251818502810185019093528083529192909190849084015b828210156112665760008481526020908190206040805160e081019091526006850290910180546001600160a01b03168252600181018054929391929184019161115290614219565b80601f016020809104026020016040519081016040528092919081815260200182805461117e90614219565b80156111cb5780601f106111a0576101008083540402835291602001916111cb565b820191906000526020600020905b8154815290600101906020018083116111ae57829003601f168201915b5050509183525050600282015460208201526003820154604082015260048201546060820152600582015460809091019060ff16600181111561121e57634e487b7160e01b600052602160045260246000fd5b600181111561123d57634e487b7160e01b600052602160045260246000fd5b815260059190910154610100900460ff1615156020918201529082526001929092019101611109565b505050509050600081511161128d5760405162461bcd60e51b815260040161040d90614056565b611295613798565b60005b825181101561132357866001600160a01b03168382815181106112cb57634e487b7160e01b600052603260045260246000fd5b6020026020010151600001516001600160a01b031614156113115782818151811061130657634e487b7160e01b600052603260045260246000fd5b602002602001015191505b8061131b81614254565b915050611298565b5060c0810151156113765760405162461bcd60e51b815260206004820152601960248201527f5468697320626c657373696e67206973207265766f6b65642100000000000000604482015260640161040d565b600081606001511161139a5760405162461bcd60e51b815260040161040d90614056565b6001600160a01b0386166000908152600b6020908152604080832080548251818502810185019093528083529192909190849084015b828210156114415760008481526020908190206040805160c0810182526006860290920180546001600160a01b031683526001808201548486015260028201549284019290925260038101546060840152600481015460808401526005015460a083015290835290920191016113d0565b505050509050816080015181511061149b5760405162461bcd60e51b815260206004820152601b60248201527f5468657265206973206e6f206d6f726520626c657373696e6773210000000000604482015260640161040d565b6000805b825181101561159057336001600160a01b03168382815181106114d257634e487b7160e01b600052603260045260246000fd5b6020026020010151600001516001600160a01b031614156115455760405162461bcd60e51b815260206004820152602760248201527f596f75206861766520616c726561647920636c61696d6564207468697320626c604482015266657373696e672160c81b606482015260840161040d565b82818151811061156557634e487b7160e01b600052603260045260246000fd5b6020026020010151604001518261157c9190614187565b91508061158881614254565b91505061149f565b506000808460a0015160018111156115b857634e487b7160e01b600052602160045260246000fd5b14156115d857608084015160608501516115d19161300b565b905061167c565b60018460a0015160018111156115fe57634e487b7160e01b600052602160045260246000fd5b141561167c57600061161e8451866080015161323290919063ffffffff16565b9050600061162c600a61323e565b9050816001141561164d5760608601516116469085613232565b9250611679565b611676600261087f600a6108858561087f886108858c8f6060015161323290919063ffffffff16565b92505b50505b60006040518060c001604052808c6001600160a01b031681526020018b6001600160a01b03168152602001866020015181526020014281526020016116d66007546103e86116ca91906141d2565b61087f866103e861300b565b81526020016116f660075461087f6103e88761300b90919063ffffffff16565b9052336000908152600a6020908152604080832080546001818101835591855293839020855160069095020180546001600160a01b039586166001600160a01b0319918216178255848701519282018054939096169216919091179093558301518051939450849361176e9260028501920190613714565b50606082015160038201556080820151600482015560a0909101516005918201555460009061179e908490612fec565b9050600654670de0b6b3a76400006117b691906141b3565b8111156117e15760016006546117cc91906141d2565b6117de90670de0b6b3a76400006141b3565b90505b600b60008c6001600160a01b03166001600160a01b031681526020019081526020016000206040518060c00160405280336001600160a01b0316815260200142815260200185815260200161184b6007546103e861183f91906141d2565b61087f886103e861300b565b815260200161186b60075461087f6103e88961300b90919063ffffffff16565b81526020908101849052825460018082018555600094855293829020835160069092020180546001600160a01b0319166001600160a01b0392831617815591830151938201939093556040820151600280830191909155606083015160038301556080830151600483015560a0909201516005909101555460075491169063a9059cbb9033906119019061183f906103e86141d2565b6040516001600160e01b031960e085901b1681526001600160a01b0390921660048301526024820152604401602060405180830381600087803b15801561194757600080fd5b505af115801561195b573d6000803e3d6000fd5b505050506040513d601f19601f8201168201806040525081019061197f9190613b81565b6119cb5760405162461bcd60e51b815260206004820152601760248201527f436c61696d2074686520746f6b656e206661696c656421000000000000000000604482015260640161040d565b6002546001600160a01b031663a9059cbb6119ee6000546001600160a01b031690565b600754611a019061087f886103e861300b565b6040516001600160e01b031960e085901b1681526001600160a01b0390921660048301526024820152604401602060405180830381600087803b158015611a4757600080fd5b505af1158015611a5b573d6000803e3d6000fd5b505050506040513d601f19601f82011682018060405250810190611a7f9190613b81565b611ac15760405162461bcd60e51b815260206004820152601360248201527254616e7366657220746178206661696c65642160681b604482015260640161040d565b6003546040516370a0823160e01b815230600482015282916001600160a01b0316906370a082319060240160206040518083038186803b158015611b0457600080fd5b505afa158015611b18573d6000803e3d6000fd5b505050506040513d601f19601f82011682018060405250810190611b3c9190613cef565b10611c135760035460405163a9059cbb60e01b81526001600160a01b038e81166004830152602482018490529091169063a9059cbb90604401602060405180830381600087803b158015611b8f57600080fd5b505af1158015611ba3573d6000803e3d6000fd5b505050506040513d601f19601f82011682018060405250810190611bc79190613b81565b611c135760405162461bcd60e51b815260206004820152601760248201527f617761726420434220746f6b656e73206661696c656421000000000000000000604482015260640161040d565b600060088760200151604051611c299190613ef4565b908152604080516020928190038301812060a0820183528054825260018101546001600160a01b03811694830194909452600160a01b90930460ff169181019190915260028201546060820152600382018054919291608084019190611c8e90614219565b80601f0160208091040260200160405190810160405280929190818152602001828054611cba90614219565b8015611d075780601f10611cdc57610100808354040283529160200191611d07565b820191906000526020600020905b815481529060010190602001808311611cea57829003601f168201915b505050919092525050600480546080840151604051631e1d900360e31b81529495506001600160a01b039091169363f0ec80189350611d499233929101613f10565b602060405180830381600087803b158015611d6357600080fd5b505af1158015611d77573d6000803e3d6000fd5b505050506040513d601f19601f82011682018060405250810190611d9b9190613cef565b507f411a457db9208c2357cddce37558ebfedc401243648449843470687d4e9014428d8d604051611de29291906001600160a01b0392831681529116602082015260400190565b60405180910390a15050600180559a9950505050505050505050565b611e06613017565b610d936000613276565b611e18613017565b600591909155600655565b336000908152600960209081526040808320805482518185028101850190935280835260609492939192909184015b82821015611faf5760008481526020908190206040805160e081019091526006850290910180546001600160a01b031682526001810180549293919291840191611e9b90614219565b80601f0160208091040260200160405190810160405280929190818152602001828054611ec790614219565b8015611f145780601f10611ee957610100808354040283529160200191611f14565b820191906000526020600020905b815481529060010190602001808311611ef757829003601f168201915b5050509183525050600282015460208201526003820154604082015260048201546060820152600582015460809091019060ff166001811115611f6757634e487b7160e01b600052602160045260246000fd5b6001811115611f8657634e487b7160e01b600052602160045260246000fd5b815260059190910154610100900460ff1615156020918201529082526001929092019101611e52565b50505050905090565b611fc0613017565b610d936132c6565b611fd06137fd565b611fd8613798565b6001600160a01b0384166000908152600960209081526040808320805482518185028101850190935280835260609493849084015b8282101561216a5760008481526020908190206040805160e081019091526006850290910180546001600160a01b03168252600181018054929391929184019161205690614219565b80601f016020809104026020016040519081016040528092919081815260200182805461208290614219565b80156120cf5780601f106120a4576101008083540402835291602001916120cf565b820191906000526020600020905b8154815290600101906020018083116120b257829003601f168201915b5050509183525050600282015460208201526003820154604082015260048201546060820152600582015460809091019060ff16600181111561212257634e487b7160e01b600052602160045260246000fd5b600181111561214157634e487b7160e01b600052602160045260246000fd5b815260059190910154610100900460ff161515602091820152908252600192909201910161200d565b505050509050612178613798565b60005b825181101561220657866001600160a01b03168382815181106121ae57634e487b7160e01b600052603260045260246000fd5b6020026020010151600001516001600160a01b031614156121f4578281815181106121e957634e487b7160e01b600052603260045260246000fd5b602002602001015191505b806121fe81614254565b91505061217b565b50600081606001511161222b5760405162461bcd60e51b815260040161040d90614056565b6001600160a01b0386166000908152600b6020908152604080832080548251818502810185019093528083529192909190849084015b828210156122d25760008481526020908190206040805160c0810182526006860290920180546001600160a01b031683526001808201548486015260028201549284019290925260038101546060840152600481015460808401526005015460a08301529083529092019101612261565b505050509050600882602001516040516122ec9190613ef4565b908152604080516020928190038301812060a0820183528054825260018101546001600160a01b03811694830194909452600160a01b90930460ff1691810191909152600282015460608201526003820180548592859290918591608084019161235590614219565b80601f016020809104026020016040519081016040528092919081815260200182805461238190614219565b80156123ce5780601f106123a3576101008083540402835291602001916123ce565b820191906000526020600020905b8154815290600101906020018083116123b157829003601f168201915b50505050508152505092509550955095505050509250925092565b6123f1612f9f565b6001600160a01b0381166000908152600b6020908152604080832080548251818502810185019093528083529192909190849084015b828210156124985760008481526020908190206040805160c0810182526006860290920180546001600160a01b031683526001808201548486015260028201549284019290925260038101546060840152600481015460808401526005015460a08301529083529092019101612427565b50505050905080516000146125155760405162461bcd60e51b815260206004820152603c60248201527f596f757220626c657373696e6720697320636c61696d696e67206279206f746860448201527f6572732e2043616e206e6f74207265766f6b6520616e796d6f72652100000000606482015260840161040d565b33600090815260096020908152604080832080548251818502810185019093528083529192909190849084015b8282101561269f5760008481526020908190206040805160e081019091526006850290910180546001600160a01b03168252600181018054929391929184019161258b90614219565b80601f01602080910402602001604051908101604052809291908181526020018280546125b790614219565b80156126045780601f106125d957610100808354040283529160200191612604565b820191906000526020600020905b8154815290600101906020018083116125e757829003601f168201915b5050509183525050600282015460208201526003820154604082015260048201546060820152600582015460809091019060ff16600181111561265757634e487b7160e01b600052602160045260246000fd5b600181111561267657634e487b7160e01b600052602160045260246000fd5b815260059190910154610100900460ff1615156020918201529082526001929092019101612542565b50505050905060008151116126c65760405162461bcd60e51b815260040161040d90614056565b6126ce613798565b6000805b835181101561276057856001600160a01b031684828151811061270557634e487b7160e01b600052603260045260246000fd5b6020026020010151600001516001600160a01b0316141561274e5783818151811061274057634e487b7160e01b600052603260045260246000fd5b602002602001015192508091505b8061275881614254565b9150506126d2565b5060008260600151116127855760405162461bcd60e51b815260040161040d90614056565b600254606083015160405163a9059cbb60e01b815233600482015260248101919091526001600160a01b039091169063a9059cbb90604401602060405180830381600087803b1580156127d757600080fd5b505af11580156127eb573d6000803e3d6000fd5b505050506040513d601f19601f8201168201806040525081019061280f9190613b81565b61285b5760405162461bcd60e51b815260206004820152601f60248201527f5472616e73666572206261636b20746f2073656e646572206661696c65642100604482015260640161040d565b3360009081526009602052604090208054600191908390811061288e57634e487b7160e01b600052603260045260246000fd5b600091825260209182902060056006909202010180549215156101000261ff001990931692909217909155604080513381526001600160a01b038816928101929092527faf0a59ad678f81ba23bb66973fedd52a279df960fc232c3bd4f56faf8d7945fb910160405180910390a15050505050565b61290b6137fd565b60088260405161291b9190613ef4565b908152604080516020928190038301812060a0820183528054825260018101546001600160a01b03811694830194909452600160a01b90930460ff16918101919091526002820154606082015260038201805491929160808401919061298090614219565b80601f01602080910402602001604051908101604052809291908181526020018280546129ac90614219565b80156129f95780601f106129ce576101008083540402835291602001916129f9565b820191906000526020600020905b8154815290600101906020018083116129dc57829003601f168201915b5050505050815250509050919050565b6001600160a01b0381166000908152600b60209081526040808320805482518185028101850190935280835260609492939192909184015b82821015610d785760008481526020908190206040805160c0810182526006860290920180546001600160a01b031683526001808201548486015260028201549284019290925260038101546060840152600481015460808401526005015460a08301529083529092019101612a41565b336000908152600a60209081526040808320805482518185028101850190935280835260609492939192909184015b82821015611faf5760008481526020908190206040805160c0810182526006860290920180546001600160a01b0390811684526001820154169383019390935260028301805492939291840191612b3790614219565b80601f0160208091040260200160405190810160405280929190818152602001828054612b6390614219565b8015612bb05780601f10612b8557610100808354040283529160200191612bb0565b820191906000526020600020905b815481529060010190602001808311612b9357829003601f168201915b50505050508152602001600382015481526020016004820154815260200160058201548152505081526020019060010190612ae1565b612bee613017565b612bf6613309565b6003546040516370a0823160e01b81523060048201526001600160a01b039091169063a9059cbb90839083906370a082319060240160206040518083038186803b158015612c4357600080fd5b505afa158015612c57573d6000803e3d6000fd5b505050506040513d601f19601f82011682018060405250810190612c7b9190613cef565b6040516001600160e01b031960e085901b1681526001600160a01b0390921660048301526024820152604401602060405180830381600087803b158015612cc157600080fd5b505af1158015612cd5573d6000803e3d6000fd5b505050506040513d601f19601f82011682018060405250810190612cf99190613b81565b612d5a5760405162461bcd60e51b815260206004820152602c60248201527f5472616e736665722043425420746f206e6578742076657273696f6e2061646460448201526b72657373206661696c65642160a01b606482015260840161040d565b6002546001600160a01b031663a9059cbb612d7d6000546001600160a01b031690565b6002546040516370a0823160e01b81523060048201526001600160a01b03909116906370a082319060240160206040518083038186803b158015612dc057600080fd5b505afa158015612dd4573d6000803e3d6000fd5b505050506040513d601f19601f82011682018060405250810190612df89190613cef565b6040516001600160e01b031960e085901b1681526001600160a01b0390921660048301526024820152604401602060405180830381600087803b158015612e3e57600080fd5b505af1158015612e52573d6000803e3d6000fd5b505050506040513d601f19601f82011682018060405250810190612e769190613b81565b612ec25760405162461bcd60e51b815260206004820152601e60248201527f5472616e73666572204255534420746f206f776e6572206661696c6564210000604482015260640161040d565b6004805460405163f2fde38b60e01b81526001600160a01b038481169382019390935291169063f2fde38b90602401600060405180830381600087803b158015612f0b57600080fd5b505af1158015612f1f573d6000803e3d6000fd5b5050505050565b612f2e613017565b6001600160a01b038116612f935760405162461bcd60e51b815260206004820152602660248201527f4f776e61626c653a206e6577206f776e657220697320746865207a65726f206160448201526564647265737360d01b606482015260840161040d565b612f9c81613276565b50565b600054600160a01b900460ff1615610d935760405162461bcd60e51b815260206004820152601060248201526f14185d5cd8589b194e881c185d5cd95960821b604482015260640161040d565b6000612ff882846141b3565b9392505050565b6000612ff88284614187565b6000612ff8828461419f565b6000546001600160a01b03163314610d935760405162461bcd60e51b815260206004820181905260248201527f4f776e61626c653a2063616c6c6572206973206e6f7420746865206f776e6572604482015260640161040d565b613079613309565b6000805460ff60a01b191690557f5db9ee0a495bf2e6ff9c91a7834c1ba4fdd244a5e8aa4e537bd38aeae4b073aa335b6040516001600160a01b03909116815260200160405180910390a1565b6000806130d38585613359565b905060005b6001600160a01b0384166000908152600c6020526040902054811015613226576001600160a01b038481166000908152600c602052604090208054918416918390811061313557634e487b7160e01b600052603260045260246000fd5b6000918252602090912001546001600160a01b03161480156131a257506001600160a01b0384166000908152600c6020526040902080548290811061318a57634e487b7160e01b600052603260045260246000fd5b600091825260209091200154600160a01b900460ff16155b15613214576001600160a01b0384166000908152600c60205260409020805460019190839081106131e357634e487b7160e01b600052603260045260246000fd5b60009182526020909120018054911515600160a01b0260ff60a01b199092169190911790555060019150612ff89050565b8061321e81614254565b9150506130d8565b50600095945050505050565b6000612ff882846141d2565b6000808261324d6001436141d2565b61325891904061426f565b9050801580613267575080600a145b15613270575060015b92915050565b600080546001600160a01b038381166001600160a01b0319831681178455604051919092169283917f8be0079c531659141344cd1fd0a4f28419497f9722a3daafe3b4186f6b6457e09190a35050565b6132ce612f9f565b6000805460ff60a01b1916600160a01b1790557f62e78cea01bee320cd4e420270b5ea74000d11b0c9f74754ebdbfc544b05a2586130a93390565b600054600160a01b900460ff16610d935760405162461bcd60e51b815260206004820152601460248201527314185d5cd8589b194e881b9bdd081c185d5cd95960621b604482015260640161040d565b6000806000613368858561337d565b91509150613375816133ed565b509392505050565b6000808251604114156133b45760208301516040840151606085015160001a6133a8878285856135ee565b945094505050506133e6565b8251604014156133de57602083015160408401516133d38683836136db565b9350935050506133e6565b506000905060025b9250929050565b600081600481111561340f57634e487b7160e01b600052602160045260246000fd5b14156134185750565b600181600481111561343a57634e487b7160e01b600052602160045260246000fd5b14156134885760405162461bcd60e51b815260206004820152601860248201527f45434453413a20696e76616c6964207369676e61747572650000000000000000604482015260640161040d565b60028160048111156134aa57634e487b7160e01b600052602160045260246000fd5b14156134f85760405162461bcd60e51b815260206004820152601f60248201527f45434453413a20696e76616c6964207369676e6174757265206c656e67746800604482015260640161040d565b600381600481111561351a57634e487b7160e01b600052602160045260246000fd5b14156135735760405162461bcd60e51b815260206004820152602260248201527f45434453413a20696e76616c6964207369676e6174757265202773272076616c604482015261756560f01b606482015260840161040d565b600481600481111561359557634e487b7160e01b600052602160045260246000fd5b1415612f9c5760405162461bcd60e51b815260206004820152602260248201527f45434453413a20696e76616c6964207369676e6174757265202776272076616c604482015261756560f01b606482015260840161040d565b6000807f7fffffffffffffffffffffffffffffff5d576e7357a4501ddfe92f46681b20a083111561362557506000905060036136d2565b8460ff16601b1415801561363d57508460ff16601c14155b1561364e57506000905060046136d2565b6040805160008082526020820180845289905260ff881692820192909252606081018690526080810185905260019060a0016020604051602081039080840390855afa1580156136a2573d6000803e3d6000fd5b5050604051601f1901519150506001600160a01b0381166136cb576000600192509250506136d2565b9150600090505b94509492505050565b6000806001600160ff1b038316816136f860ff86901c601b614187565b9050613706878288856135ee565b935093505050935093915050565b82805461372090614219565b90600052602060002090601f0160209004810192826137425760008555613788565b82601f1061375b57805160ff1916838001178555613788565b82800160010185558215613788579182015b8281111561378857825182559160200191906001019061376d565b50613794929150613838565b5090565b6040518060e0016040528060006001600160a01b0316815260200160608152602001600081526020016000815260200160008152602001600060018111156137f057634e487b7160e01b600052602160045260246000fd5b8152600060209091015290565b6040518060a001604052806000815260200160006001600160a01b03168152602001600060ff16815260200160008152602001606081525090565b5b808211156137945760008155600101613839565b600067ffffffffffffffff831115613867576138676142af565b61387a601f8401601f1916602001614132565b905082815283838301111561388e57600080fd5b828260208301376000602084830101529392505050565b80356001600160a01b03811681146138bc57600080fd5b919050565b600082601f8301126138d1578081fd5b813560206138e66138e183614163565b614132565b80838252828201915082860187848660051b8901011115613905578586fd5b855b858110156139bd57813567ffffffffffffffff80821115613926578889fd5b9089019060a0828c03601f190181131561393e57898afd5b613946614109565b88840135815260406139598186016138a5565b8a83015260608086013560ff81168114613971578d8efd5b8083850152506080915081860135818401525082850135925083831115613996578b8cfd5b6139a48e8b858801016139ca565b9082015287525050509284019290840190600101613907565b5090979650505050505050565b600082601f8301126139da578081fd5b612ff88383356020850161384d565b6000602082840312156139fa578081fd5b612ff8826138a5565b60008060408385031215613a15578081fd5b613a1e836138a5565b9150613a2c602084016138a5565b90509250929050565b60008060008060808587031215613a4a578182fd5b613a53856138a5565b9350613a61602086016138a5565b925060408501359150606085013567ffffffffffffffff811115613a83578182fd5b8501601f81018713613a93578182fd5b613aa28782356020840161384d565b91505092959194509250565b60008060408385031215613ac0578182fd5b823567ffffffffffffffff80821115613ad7578384fd5b818501915085601f830112613aea578384fd5b81356020613afa6138e183614163565b8083825282820191508286018a848660051b8901011115613b19578889fd5b885b85811015613b5257813587811115613b31578a8bfd5b613b3f8d87838c01016139ca565b8552509284019290840190600101613b1b565b50909750505086013592505080821115613b6a578283fd5b50613b77858286016138c1565b9150509250929050565b600060208284031215613b92578081fd5b81518015158114612ff8578182fd5b600060208284031215613bb2578081fd5b813567ffffffffffffffff811115613bc8578182fd5b613bd4848285016139ca565b949350505050565b60008060008060008060c08789031215613bf4578384fd5b863567ffffffffffffffff80821115613c0b578586fd5b613c178a838b016139ca565b975060209150613c28828a016138a5565b96506040890135955060608901359450608089013560028110613c49578485fd5b935060a089013581811115613c5c578384fd5b89019050601f81018a13613c6e578283fd5b8035613c7c6138e182614163565b8082825284820191508484018d868560051b8701011115613c9b578687fd5b8694505b83851015613cc457613cb0816138a5565b835260019490940193918501918501613c9f565b5080955050505050509295509295509295565b600060208284031215613ce8578081fd5b5035919050565b600060208284031215613d00578081fd5b5051919050565b60008060408385031215613d19578182fd5b50508035926020909101359150565b6000815180845260208085019450808401835b83811015613d9457815180516001600160a01b03168852838101518489015260408082015190890152606080820151908901526080808201519089015260a0908101519088015260c09096019590820190600101613d3b565b509495945050505050565b60008151808452613db78160208601602086016141e9565b601f01601f19169290920160200192915050565b8051825260018060a01b03602082015116602083015260ff6040820151166040830152606081015160608301526000608082015160a06080850152613bd460a0850182613d9f565b600060018060a01b0380835116845280602084015116602085015250604082015160c06040850152613e4860c0850182613d9f565b9050606083015160608501526080830151608085015260a083015160a08501528091505092915050565b60018060a01b0381511682526000602082015160e06020850152613e9960e0850182613d9f565b905060408301516040850152606083015160608501526080830151608085015260a083015160028110613eda57634e487b7160e01b83526021600452602483fd5b8060a08601525060c083015161337560c086018215159052565b60008251613f068184602087016141e9565b9190910192915050565b6001600160a01b0383168152604060208201819052600090613bd490830184613d9f565b602081526000612ff86020830184613d28565b602080825282518282018190526000919060409081850190868401855b82811015613f9457815180516001600160a01b031685528601511515868501529284019290850190600101613f64565b5091979650505050505050565b6000602080830181845280855180835260408601915060408160051b8701019250838701855b82811015613ff557603f19888603018452613fe3858351613e13565b94509285019290850190600101613fc7565b5092979650505050505050565b6000602080830181845280855180835260408601915060408160051b8701019250838701855b82811015613ff557603f19888603018452614044858351613e72565b94509285019290850190600101614028565b6020808252602a908201527f5468657265206973206e6f20626c657373696e6720666f756e64206f6e20746860408201526969732073656e6465722160b01b606082015260800190565b602081526000612ff86020830184613dcb565b6060815260006140c66060830186613dcb565b82810360208401526140d88186613e72565b905082810360408401526140ec8185613d28565b9695505050505050565b602081526000612ff86020830184613e13565b60405160a0810167ffffffffffffffff8111828210171561412c5761412c6142af565b60405290565b604051601f8201601f1916810167ffffffffffffffff8111828210171561415b5761415b6142af565b604052919050565b600067ffffffffffffffff82111561417d5761417d6142af565b5060051b60200190565b6000821982111561419a5761419a614283565b500190565b6000826141ae576141ae614299565b500490565b60008160001904831182151516156141cd576141cd614283565b500290565b6000828210156141e4576141e4614283565b500390565b60005b838110156142045781810151838201526020016141ec565b83811115614213576000848401525b50505050565b600181811c9082168061422d57607f821691505b6020821081141561424e57634e487b7160e01b600052602260045260246000fd5b50919050565b600060001982141561426857614268614283565b5060010190565b60008261427e5761427e614299565b500690565b634e487b7160e01b600052601160045260246000fd5b634e487b7160e01b600052601260045260246000fd5b634e487b7160e01b600052604160045260246000fdfea264697066735822122005e0ca57370ce9ad4ceb8e8d7dc0ea8965d0808dacdf45999a999515a4c1c1fb64736f6c63430008040033",
  "linkReferences": {},
  "deployedLinkReferences": {}
}